:020000040800F2
:10000000300500209D0100083B270008BF1E0008A6
:1000100039270008B5080008252F00080000000057
:10002000000000000000000000000000592A000845
:10003000B7080008000000003D2700085B2A000800
:10004000B7010008B7010008B7010008B7010008B0
:10005000B7010008B7010008B7010008B7010008A0
:10006000B7010008B7010008B7010008B701000890
:10007000B7010008B7010008B7010008B701000880
:10008000B7010008B7010008B7010008B701000870
:10009000B7010008B7010008B7010008F908000817
:1000A000B7010008B7010008B7010008B701000850
:1000B000B7010008B7010008B7010008B701000840
:1000C000B7010008B7010008B7010008B701000830
:1000D000B7010008B7010008B7010008B701000820
:1000E000B9080008B7010008B7010008B701000807
:1000F000B7010008B7010008B7010008B701000800
:10010000B7010008B7010008B7010008B7010008EF
:10011000B7010008B7010008B7010008B7010008DF
:10012000B7010008B7010008B7010008B7010008CF
:10013000B7010008B7010008B7010008B7010008BF
:10014000B7010008B7010008B7010008B7010008AF
:10015000B7010008B7010008B7010008B70100089F
:10016000B7010008B7010008B7010008B70100088F
:10017000B7010008B70100080000000000000000FF
:10018000B7010008B7010008DFF80CD000F044FB0D
:10019000004800475D3800083005002006488047C9
:1001A00006480047FEE7FEE7FEE7FEE7FEE7FEE75C
:1001B000FEE7FEE7FEE7FEE7D12A00088901000816
:1001C0002DE9F05F0546002092469B46884606468C
:1001D000814640241BE0284641464746224600F01F
:1001E000C6F953465A46C01A914110D311461846D3
:1001F000224600F0ADF92D1A67EB01084F46224662
:100200000120002100F0A4F917EB00094E41201E47
:10021000A4F10104DFDC484631462A46434600F09B
:1002200000B830BCBDE8C09F40EA01039B0703D083
:1002300009E008C9121F08C0042AFAD203E011F825
:10024000013B00F8013B521EF9D27047D2B201E0E7
:1002500000F8012B491EFBD270470022F6E710B5CB
:1002600013460A4604461946FFF7F0FF204610BD24
:10027000421C10F8011B0029FBD1801A70472DE9A0
:10028000FE4F804681EA0300C00F0C46009021F02B
:10029000004123F00045B8EB0200A94105D24046D9
:1002A000214690461C460B46024623F00040104370
:1002B00047D0270DC7F30A00C3F30A510290401A32
:1002C000019040286BDAC3F3130040F4801B0098C0
:1002D000924620B10023D2EB030A63EB0B0B01988B
:1002E0005946C0F14002504600F032F906460D462C
:1002F00050465946019A00F04AF910EB0800614156
:10030000002487EA115284EAE7731A4340D0009A26
:1003100062B3019A012A4FEA075215DC001B61EB18
:1003200002014FF0004202EA0752CDE90042001CF0
:1003300041F5801132462B4600F081F903B000F000
:1003400045B840462146F9E7001B61EB0201001C5D
:1003500041F5801300185B412018A2F5001747EB08
:10036000030140EAD570B6196D4111E06D084FEAFE
:10037000360645EAC0754FEA0752001B61EB0201E1
:10038000001C41F5801149084FEA30000019514125
:1003900032462B4603B000F01CB800F041B900987B
:1003A000012240000023D0EB020263EBE0730098CF
:1003B00021464FEAE074B8EB000061EB0401E9E785
:1003C00083F000435BE781F0004158E730BCBDE8B3
:1003D000C08F30BCBDE8C04FFFF7DFBF2DE9FE4F37
:1003E00081EA030404F0004421F0004100944FF03E
:1003F000000B23F0004350EA01045ED052EA0304EC
:100400005BD0C3F30A54C1F30A552C44A4F2F3346D
:100410000194A0FB0254C1F3130141F48011C3F312
:10042000130343F4801301FB024400FB034E840AD0
:10043000970A44EA815447EA8357A4FB0768029568
:100440008D0A05FB07854FEA932C04FB0C54270506
:10045000029D4FEA065847EA1637B5EB08056EEBE2
:10046000070C870E920E47EA811742EA8312A7FB18
:100470000201B6EB0B0164EB00042B0D43EA0C33D5
:100480005E1844EB1C50DA465146E7FB0201C5F307
:1004900013044FEA0B3343EA14534FEA0432019C2E
:1004A00043EA0603A4F10C040294009CCDE900B4D5
:1004B00000F0C5F803B000F003B800200146F9E7EA
:1004C00030BCBDE8C08F00F0004230F000400AD0E0
:1004D000C10D01F56071C0F3160042EA0151C20876
:1004E00040071143704700200146704701F0004368
:1004F00030B421F0004150EA010206D00A0DA2F505
:100500006072C1F31301002A02DC30BC0020704786
:10051000440F44EAC104C100E01830BC00EBC250F3
:1005200000F047B830B50B460146002020220124D8
:1005300009E021FA02F59D4205D303FA02F5491BB1
:1005400004FA02F52844151EA2F10102F1DC30BDC7
:10055000202A04DB203A00FA02F100207047914083
:10056000C2F1200320FA03F3194390407047202A78
:1005700004DB203A21FA02F00021704721FA02F34D
:10058000D040C2F120029140084319467047202A0A
:1005900006DBCB17203A41FA02F043EAE07306E0AB
:1005A00041FA02F3D040C2F12002914008431946BB
:1005B00070470029A8BF7047401C490008BF20F0C1
:1005C0000100704710B4B0FA80FC00FA0CF050EA59
:1005D000010404BF10BC704749B1CCF1200421FADA
:1005E00004F411FA0CF118BF012121430843A3EBD5
:1005F0000C01CB1D4FEA00614FEA102042BF0020E2
:1006000010BC704700EBC35010440029A4BF10BCBD
:100610007047401C490008BF20F0010010BC704723
:1006200010B5141E73F1000408DA401C41F10001FA
:1006300092185B411A4301D120F0010010BD2DE951
:10064000F04D92469B4611B1B1FA81F202E0B0FA48
:1006500080F220329046FFF77BFF04460F4640EAC7
:100660000A0041EA0B0153465A46084313D011468B
:1006700053EA010019D0C8F140025046FFF777FF56
:1006800005460E46504659464246FFF761FF08436D
:1006900005D0012004E020463946BDE8F08D002059
:1006A000054346EAE0762C4337430A986305E40A9B
:1006B000A0EB08000022FD0A44EA47540A3002D5A4
:1006C00000200146E9E7010510196941DDE9084507
:1006D00000196941BDE8F04DA2E72DE9F04D81EA2E
:1006E000030404F0004B21F0004514464FF0000ACB
:1006F00023F0004150EA050220D054EA01021DD047
:10070000C5F30A570246C5F31303C1F31300C1F33F
:100710000A5640F4801543F48013A7EB0608101B1B
:10072000D64608F2FD3873EB050002D308F1010844
:1007300001E092185B41B8F1000F03DA0020014696
:10074000BDE8F08D00204FF48011064684460EE08F
:10075000171B73EB050705D3121B63EB0503064359
:100760004CEA010C49084FEA300092185B4150EA0C
:100770000107EDD152EA030012D082EA040083EAB5
:100780000501084305D0101BAB4106D2012200230E
:1007900006E000224FF0004302E06FF00102531028
:1007A0001AEB06004CEB085110EB0A0041EB0B0171
:1007B000BDE8F04DFFF734BFC1F30A52C1F3130196
:1007C00040F2FF3341F480119A4202DA00200146E0
:1007D000704740F233439A42A2F2334202DC524263
:1007E000FFF7C5BEFFF7B4BE30B5041E71F10004BB
:1007F00004DB4FF00044404264EB0101141E73F12E
:10080000000405DB1C464FF00043524263EB040337
:10081000994208BF904230BD064C074D06E0E068A3
:1008200040F0010394E8070098471034AC42F6D337
:10083000FFF7AEFCE83A0008083B000804490968E5
:10084000002903D0096B002900D008477047000039
:100850000400002070B5084D0024A86880476A286D
:1008600001D0012405E005480560296844F23040C4
:100870008847204670BD00002C00002004000020A6
:1008800010B5074C0548206002F0B2F8206800213E
:100890000268BE209047002010BD00001C00002010
:1008A0000000002002480068C168BE200847000020
:1008B00000000020FEE7704710B54FF4806000F0A4
:1008C0003FF84FF4006000F03BF84FF4005000F0A8
:1008D00037F84FF4804000F033F84FF4004000F058
:1008E0002FF80448016811B10022026010BD0121F7
:1008F000016010BD1800002010B5202000F020F885
:10090000402000F01DF8802000F01AF8BDE81040EB
:100910004FF4807000F014B870B5044600F054F93C
:100920000546601C02D004480078044400F04CF9ED
:10093000401BA042FAD370BD0800002070470000A1
:10094000044910B50A68024202D00860FFF7F6FFBA
:1009500010BD0000140401402DE9F04FDFF834927F
:10096000002309F1040A012403250AF1040B87B0CE
:100970000F270BF1040E04E104FA03F632407CD099
:10098000D1F804C0BCF1010F08D0BCF1020F05D0B2
:10099000BCF1110F02D0BCF1120F29D1D0F808C060
:1009A000CDF800C04FEA430C05FA0CF8CDF80CC0A6
:1009B000DDF800C02CEA080CCDF800C0D1F80C809E
:1009C000DDF80CC008FA0CF8DDF800C048EA0C08A5
:1009D000C0F80880D0F8048091F804C028EA06081E
:1009E000CCF3001C0CFA03FC4CEA080CC0F804C061
:1009F000D1F804806FEA080C5FEA8C7C09D1D0F84A
:100A00002CC02CEA060CC8F3C0069E4046EA0C0631
:100A1000C662D0F80CC04FEA430805FA08F62CEA83
:100A2000060CCDF8148002968E6806FA08F646EA9F
:100A30000C06C6604E68022E01D0122E15D1DE08BB
:100A400000EB86060396366A4FEA437C4FEADC6881
:100A500007FA08FC26EA0C06D1F810C00CFA08FCCC
:100A60004CEA060C039EC6F820C00668DDF808C0F4
:100A700026EA0C0691F804C000E081E0DDF814805D
:100A80000CF0030C0CFA08FC4CEA060CC0F800C091
:100A90004E68F60074D5404ED6F860C04CF0010C9C
:100AA000C6F860C0366E23F0030C06F0010600960F
:100AB0003A4E66440296D6F808C09E074FEA16786A
:100AC00007FA08F62CEA060CB0F1904F04D0344E29
:100AD000B04203D101261BE0002619E0314EB0429E
:100AE00001D1022614E0304EB04201D103260FE0BE
:100AF0002E4EB04201D104260AE02D4EB04201D163
:100B0000052605E02B4EB04201D1062600E007265F
:100B100006FA08F646EA0C06DDF808C0CCF80860CC
:100B2000D9F80060CC46D1F8048096435FEAC83813
:100B300000D51643CCF80060DAF80060D446D1F84E
:100B4000048096435FEA883800D51643CCF80060ED
:100B5000DBF80060DC46D1F8048096435FEAC828E1
:100B600000D51643CCF80060DEF80060F446D1F8FA
:100B7000048096435FEA882800D51643CCF80060CD
:100B80005B1C0A6832FA03F67FF4F6AE07B000F099
:100B900013B80000000401400010024000000140B2
:100BA0000004004800080048000C004800100048FD
:100BB000001400480018004830BCBDE8C08F0AB1DE
:100BC000816170478162704701488068704700000A
:100BD0000800002090F84120202A24D190F84020DD
:100BE000012A20D0012280F84020242280F84120D0
:100BF0000268136823F0010313600268136823F48A
:100C000080531360026813680B43136001680A681D
:100C100042F001020A60202180F84110002180F892
:100C20004010084670470220704710B5040013D0EA
:100C3000242084F841002068016821F0010101604E
:100C4000204600F0CCF90020606484F8410044F8AC
:100C5000300FA074207410BD012010BD70B50400C9
:100C600004D094F84100002510B106E0012070BDC9
:100C700084F84050204600F0B3F9242084F8410065
:100C80002068016821F0010101606068216820F09E
:100C9000706008612068816821F400418160E0682B
:100CA0000128A06807D040F4044021688860E0680B
:100CB000022803D006E040F40040F6E721684FF434
:100CC0000060486020684168114A11434160206813
:100CD000C16821F40041C160D4E904010843A1695D
:100CE00040EA01202168C860D4E90701084321686F
:100CF00008602068016841F00101016065642020FE
:100D000084F84100256384F84250002070BD000043
:100D1000008000022DE9FF4F83B00446DDE9108713
:100D200090F84100DDF848909A469346202874D107
:100D30005FEA080014D09FB194F8400001286CD0FD
:100D4000012084F84000FFF73FFF06460122009093
:100D50001923D103204601F081F9002871D103E065
:100D60004FF4007060646CE0222084F84100402061
:100D700084F8420000256564C4F8248067856563B3
:100D8000CDE9009653465A462046049901F0ECF806
:100D900010B184F8405054E0618D3548FF274FF082
:100DA00080784FF0007AFF2904D927853A464346D8
:100DB000009005E0618D2185009094F8282053462D
:100DC0002046049901F034F94B46002204212046C4
:100DD000009601F043F9A0BB2068406A616A087080
:100DE000606A401C6062208D401E81B22185608D4A
:100DF000401E6085608DD8B1D1B94B46002280215C
:100E00002046009601F02AF9D8B9608DFF2805D94F
:100E100027853A464346009506E026E0608D20850A
:100E2000009594F8282053462046049901F000F9D3
:100E3000608D0028C8D132464946204601F03AF973
:100E400018B1012007B000F017B821682020C86150
:100E500021684A68074B1A404A6084F8410084F8C8
:100E6000425084F840500020ECE70220EAE70000FE
:100E70000024008000E800FE30BCBDE8C08F000008
:100E80002DE9FF4F83B00446DDE9108790F841005B
:100E9000DDF848909A469346202871D15FEA080011
:100EA00014D09FB194F84000012869D0012084F843
:100EB0004000FFF789FE0646012200901923D10366
:100EC000204601F0CBF800286ED103E04FF400700B
:100ED000606469E0212084F84100402084F84200E9
:100EE00000256564C4F8248067856563CDE90096B4
:100EF00053465A462046049901F068F810B184F828
:100F0000405051E0608DFF274FF080784FF0007A1D
:100F1000FF2804D927853A464346009505E0608DB1
:100F20002085009594F8282053462046049901F026
:100F30007FF832464946204601F0E2F8A0BB606ADD
:100F4000216800788862606A401C6062608D401E83
:100F50006085208D401E80B22085618DD9B1D0B9C9
:100F60004B46002280212046009601F077F8D8B940
:100F7000608DFF2805D927853A464346009506E04F
:100F800026E0608D2085009594F828205346204661
:100F9000049901F04DF8608D0028CAD132464946C7
:100FA000204601F087F818B1012007B000F014B80E
:100FB00020682021C16120684268064B1A404260C7
:100FC00084F8411084F8425084F840500020ECE747
:100FD0000220EAE700E800FE30BCBDE8C08F7047A1
:100FE00070470000024881680278114481607047B0
:100FF0000800002010B50024032000F071F8002044
:1010000000F008F808B1012401E000F025F82046BE
:1010100010BD000070B50E4E05460024307898B122
:101020004FF47A71B1FBF0F00A490968B1FBF0F0B6
:1010300000F016FE40B9102D06D200222946501E9F
:1010400000F02EF8756000E00124204670BD00001D
:101050000800002014000020094808B5016E41F086
:1010600001010166016E01F001010091816D41F005
:1010700080518165806D00F08050009008BD0000B7
:1010800000100240002809DB00F01F0201219140FE
:101090004009800000F1E020C0F800117047000016
:1010A000F0B40E4B1B680C46C3F30223C3F10705D3
:1010B000042D00D90425191D072901D2002300E0C1
:1010C000DB1E012606FA05F1491E214099409E408B
:1010D000761E16403143F0BC01F03ABF0CED00E043
:1010E000064900F0070208684FF6FF03184040EA7F
:1010F0000220034A10430860704700000CED00E036
:101100000000FA051649B0F5007F0868C0F34120D9
:1011100009D0022805D0086820F4C06040F480603F
:101120000860002070470128FBD0086820F4C060E8
:1011300040F4007008600B483222006850430A4AAD
:10114000B0FBF2F0401C00E0401E4A69520501D598
:101150000028F9D148694005E3D503207047000015
:10116000007000401400002040420F000248006858
:1011700000F4C06070470000007000402DE9F84F97
:10118000044600270088E54D3E46010504F1200B8A
:101190001DD5606E78B1B0F5800F11D0B0F5000F9D
:1011A00004D0B0F5400F22D001270FE0E86840F4EA
:1011B0008030E8601BE00021201D01F0C1FA03E04F
:1011C0000021584601F052FB070010D03E4620880F
:1011D000C00426D5A06EC0B1B0F1807F1AD0B0F1A6
:1011E000007F0DD0B0F1407F19D0012718E0D5F86D
:1011F0008800616E20F440000843C5F88800E6E7E7
:10120000E86840F48030E86009E00021201D01F02A
:1012100097FA03E00021584601F028FB0746F7B192
:101220003E46206880033AD5A86D4FF00008C00004
:1012300009D4A86D40F08050A865A86D4FF0010852
:1012400000F080500090DFF8D8A2DAF8001041F4E6
:101250008071CAF80010FFF7B7FC814610E0D5F89E
:101260008800A16E20F040700843C5F88800D8E7D8
:10127000FFF7AAFCA0EB0900022801D9032705E02B
:10128000DAF80000C005F3D5002F7CD04FEA07063E
:10129000B8F1000F03D0A86D20F08050A865207829
:1012A000C00707D0D5F88800A16B20F003000843E1
:1012B000C5F888002078800707D5D5F88800E16B4D
:1012C00020F00C000843C5F888002078400707D5B7
:1012D000D5F88800216C20F030000843C5F888005C
:1012E0002078000707D5D5F88800616C20F0C00091
:1012F0000843C5F888002078C00607D5D5F88800CF
:10130000A16C20F440700843C5F88800207880065E
:1013100007D5D5F88800E16C20F440600843C5F893
:1013200088002088800507D5D5F88800E16D20F475
:1013300040200843C5F888002088400507D5D5F827
:101340008800216E20F440100843C5F888002078FA
:10135000400607D5D5F88800216D20F44050084399
:10136000C5F888002078000607D5D5F88800616D9B
:1013700020F440400843C5F888002088C00509D5FE
:10138000D5F8880000E01CE0A16D20F4403008434F
:10139000C5F8880020884FF0006780044FF080680F
:1013A0004FD5D5F88800E16E20F040600843C5F8BD
:1013B0008800E06EB8423CD1E86840F48010E860F4
:1013C0003FE0D5F8900010F4407015D0D4F88410A8
:1013D000814211D0D5F89000D5F8901020F44070DB
:1013E00041F48031C5F89010D5F8901021F4803187
:1013F000C5F89010C5F89000C00710D0FFF7E4FBC7
:10140000074641F2883906E0FFF7DEFBC11B49457C
:1014100001D903263CE7D5F890008007F4D5D5F82C
:101420009000D4F8841020F440700843C5F8900070
:101430002EE7404505D10121201D01F081F900B1C1
:1014400006462068000317D5D5F88800216F20F0E4
:1014500040600843C5F88800206FB84204D1E868AE
:1014600040F48010E86007E0404505D10121201DCF
:1014700001F066F900B106462068400317D5D5F89B
:101480008800616F20F040600843C5F88800606FF5
:10149000B84204D1E86840F48010E86007E04045B5
:1014A00005D10121201D01F04BF900B1064620882D
:1014B00040041AD5D5F88800A16F20F040500843A9
:1014C000C5F88800A06FB0F1805F03D0B0F1005F75
:1014D00005D00AE00221201D01F032F903E00221CB
:1014E000584601F0C3F900B106462088000407D52C
:1014F000D5F88800E16F20F080400843C5F88800E7
:101500002068C00307D555F8880FD4F8801020F064
:10151000004008432860304600F004B80010024044
:101520000070004018BCBDE8E08F00002DE9F047D6
:101530000F46050058D0404E306800F00700B84212
:1015400009D2306820F0070038433060306800F07E
:101550000700B84248D12878384CC0072CD06868BA
:10156000032811D0022812D0216898B1490500291A
:101570003ADAA16821F003010143A160FFF724FBDF
:10158000804641F2883910E021688901EFE721683F
:101590008903ECE78907EAE7FFF716FBA0EB0801F0
:1015A000494502D90320BDE8F087A068696800F0CA
:1015B0000C00B0EB810FEFD12878800705D5A0682B
:1015C000A96820F0F0000843A060306800F0070030
:1015D000B8420BD9306820F00700384330603068DB
:1015E00000F00700B84201D00120DCE7287840076E
:1015F00005D5A068E96820F4E0600843A060287879
:10160000000706D5A068296920F4605040EAC100AF
:10161000A06000F03FF8A168094AC1F30311515CD2
:1016200001F01F01C8400749086007480068BDE88D
:10163000F047FFF7EFBC000000200240001002401E
:10164000A03A0008140000200C00002005480649BC
:1016500000688968054AC1F30221515C01F01F014D
:10166000C84070471400002000100240E03A000813
:101670000548064900688968054AC1F3C221515CE2
:1016800001F01F01C8407047140000200010024004
:10169000E03A000870B52549002318468A68CC68EE
:1016A00012F00C0204F00306214C4FEA640509D045
:1016B0000C2A05D0042A32D0082A00D1284670BD51
:1016C000012E10D10B681B0704D4D1F89430C3F35A
:1016D000032302E00B68C3F30313164E56F82330BE
:1016E000DAB10C2AEBD1C86800F00300022818D048
:1016F000032818D01846CA68CB68C2F30212C3F395
:1017000006234343521CB3FBF2F2C868C0F34160A6
:10171000401C4000B2FBF0F070BD184670BD204682
:1017200070BD2046E7E72846E5E7000000100240CC
:101730000024F400B03A00082DE9F84304006FD00B
:10174000FE4DA86800F00C06E86800F0030720785A
:10175000C00664D576B10C2E01D1012F0AD0A06944
:10176000002828687AD040F001002860FFF72CFAA2
:1017700080465DE02868800702D5A0690028DED099
:10178000216A2868000703D5286800F0F00004E00B
:10179000D5F89400F02202EA1010814216D90846CA
:1017A00001F0E8F800283BD1286840F008002860E4
:1017B0002868216A20F0F000084328606868E16921
:1017C00020F47F4040EA0120686016E0286840F07D
:1017D000080028602868216A20F0F000084328608B
:1017E0006868E16920F47F4040EA0120686026B91A
:1017F000206A01F0BFF80028D5D1FFF74BFFA96898
:10180000CF4AC1F30311515C01F01F01C840CD491B
:101810000860CD480068FFF7FDFB00287ED12EE070
:10182000CAE000BFFFF7D0F9A0EB0800022876D885
:1018300028688007F6D5286840F0080028602868E6
:10184000216A20F0F000084328606868E16920F40C
:101850007F4040EA0120686011E0FFE720F00100CE
:101860002860FFF7B1F9804606E000BFFFF7ACF94A
:10187000A0EB08000228DAD828688007F6D4207880
:10188000C00740D0082E18D00C2E01D1032F14D041
:101890006068B0F5803F17D0B0F5A02F286817D04A
:1018A00020F480302860286820F480202860606858
:1018B000E0B1FFF789F9804614E02868800322D55B
:1018C0006068002878D01EE0286840F48030EDE79A
:1018D00040F480202860F7E7FFF776F9A0EB0800D6
:1018E0006428A4D828688003F6D50CE0FFF76CF9CB
:1018F000804605E0FFF768F9A0EB0800642896D859
:1019000028688003F6D4207880073BD5042E11D0B8
:101910000C2E01D1022F0DD0E06801E092E1F1E040
:10192000002828681ED040F480702860FFF74CF92A
:1019300007460CE0286840050CD5E0680028C1D0B7
:1019400008E000BFFFF740F9C01B022893D82868C1
:101950004005F7D56868217C20F0F85040EA016026
:1019600068600FE020F480702860FFF72DF90746CB
:1019700005E000BFFFF728F9C01B0228B1D828688E
:101980004005F7D42078000729D560690028D5F8EC
:10199000940012D040F00100C5F89400FFF714F94C
:1019A000074604E0FFF710F9C01B022899D8D5F8C4
:1019B00094008007F6D512E000E120F00100C5F8A0
:1019C0009400FFF701F9074605E000BFFFF7FCF8B8
:1019D000C01B022885D8D5F894008007F6D420785B
:1019E000400766D5A86D0027C00008D4A86D40F058
:1019F0008050A865A86D012700F0805000905348E2
:101A00000168C90512D40168814641F48071016002
:101A1000FFF7DAF8804605E0FFF7D6F8A0EB0800FC
:101A200002286FD8D9F80000C005F5D5A0680128B4
:101A300016D00528D5F8900017D020F00100C5F881
:101A40009000D5F8900020F0040000BFC5F8900089
:101A5000A06841F28839C0B1FFF7B6F880460FE0C0
:101A6000D5F8900040F00100F0E740F00400C5F820
:101A70009000F5E7FFF7A8F8A0EB0801494541D829
:101A8000D5F890008007F5D50EE0FFF79DF8804669
:101A900006E000BFFFF798F8A0EB0801494531D8F0
:101AA000D5F890008007F5D41FB1A86D20F08050C4
:101AB000A865A06A38B302280AD00C2E7ED0286808
:101AC00020F080702860286810F0205F77D0AAE0AE
:101AD000E868E26A00F0030191422BD1216B00F02B
:101AE000700209011039914224D1626B00F4FE4169
:101AF000B1EB022F1ED1A26B00F40031072A03D0F4
:101B0000012202E09DE089E00022914212D1A18FE2
:101B100000F4C00249084905A1F50011914209D11C
:101B200094F8401000F0C06049084906A1F1007126
:101B300081425CD00C2E41D0286809E000100240A0
:101B4000A03A0008140000200C00002000700040A3
:101B500040017ED42868C0007BD4286820F08070C3
:101B60002860FFF731F8064605E000BFFFF72CF8C4
:101B7000801B022865D828688001F7D4D4E90B01BE
:101B80006FF00F0202EB01110843A18F52044908C4
:101B900002EB4151626B41EA0221084394F8401084
:101BA0004FF07E42490802EB41610843A16B0909ED
:101BB00040EA4140E968284A114001E049E02EE04E
:101BC0000843E860286840F080702860E86840F0CA
:101BD0008070E860FEF7F8FF044604E0FEF7F4FFCB
:101BE000001B02282DD828688001F7D52FE028682F
:101BF00080012CD4286840F080702860E86840F0AC
:101C00008070E860FEF7E0FF044604E0FEF7DCFFCA
:101C1000001B022815D828688001F7D517E0E8686E
:101C200020F00300E860E8680C490840E860FEF72F
:101C3000CBFF044608E000BFFEF7C6FF001B0228EA
:101C400002D90320BDE8F88328688001F4D400207D
:101C5000F8E70120F6E700008C809DF9FFFFEEFE1B
:101C600010B5401EB0F1807F01D3012010BD4FF0B0
:101C7000E02460610F21601701F06AF90020A06183
:101C800007202061002010BD10B5040002D0606F55
:101C900010B107E0012010BD002084F8700020463C
:101CA00000F026F8242060672068016821F0010117
:101CB0000160204600F0BEFF0128ECD0606A10B140
:101CC000204600F027FF2068416821F490414160E0
:101CD0002068816821F02A0181602068016841F054
:101CE000010101602046BDE8104000F077BF000010
:101CF00010B586B0044614216846FEF7AEFA1249C4
:101D0000206888421ED11148016E41F4804101666D
:101D1000016E01F480410591C16C41F00201C16482
:101D2000C06C694600F002000590C02000900220BF
:101D300001900020029003200390072004900448A3
:101D4000FEF70AFE06B010BD003801400010024048
:101D5000000400482DE9F8430446406F1F4616462C
:101D60000D4620284FD1CDB1C6B194F8700001289E
:101D700049D0012084F870004FF00008C4F87C803E
:101D800021206067FEF720FFA4F850608146A4F888
:101D90005260A068B0F5805F03D004E00120BDE888
:101DA000F883206928B12E465FF0000584F8708022
:101DB00010E00026FAE78021204601F061F8B8B96A
:101DC000C6B116F8010B21680885B4F85200401E10
:101DD000A4F85200B4F852004B464FF000020097AE
:101DE0000028E8D14FF04001204601F049F830B119
:101DF0000320D4E735F8020BC0F30800E3E7202006
:101E000060670020CBE70220C9E710B50446C0B2E6
:101E1000202100F0F3FD20F0030040F08502E0B245
:101E2000BDE81040202100F007BE2DE9F84304462C
:101E3000C0B202236A46B22100F0F2FDE0B23521C1
:101E400000F0DCFD9DF8001000F0030241EA0221E1
:101E50009DF8012000F00C0042EA8010CD104FEAFE
:101E6000E008E0B204236A46BC2100F0D9FDBDF9C8
:101E70000060BDF90270E0B202236A46AA2100F0B8
:101E8000CFFDBDF90000801B00EE100AA8EB050095
:101E9000F8EEC00A00EE100AB81BB8EEC00A60EEF9
:101EA000800A00EE100AB8EEC00A80EE801A00EE3A
:101EB000105AB8EEC00A31EE000ABDE8F883FEE71A
:101EC00001688A69D243920701D400228A620068BD
:101ED0008169C943C90703D0816941F0010181616A
:101EE000704700002DE9F0410446006890460E4618
:101EF0008069C043C00633D400252027206880694C
:101F0000C043800615D5701CF8D0FEF75DFEA0EB2F
:101F10000800B04201D8002EF0D154F8440F40F030
:101F2000200044F804096770A57025700120BDE801
:101F3000F08121681020C8612068C7612046FFF742
:101F4000BFFF54F8440B4168064A114041602068C5
:101F500040F0040044F820096777A5772577E5E786
:101F60000020E4E700E800FE2DE9F84304461646A9
:101F7000DDE9089714489846DAB20090002320461D
:101F800000F056F83A464946204600F0B9F8B8B98C
:101F9000F5B2B8F1010F08D02168300A88623A46DC
:101FA0004946204600F0ACF850B9206885624B469F
:101FB000002240212046009700F050F8002800D071
:101FC0000120BDE8F8830000002000802DE9F843DF
:101FD0000446164615489846DDE90897DAB2C3026A
:101FE0000090204600F024F83A464946204600F08A
:101FF00087F8B8B9F5B2B8F1010F08D02168300AF6
:1020000088623A464946204600F07AF850B920687E
:1020100085624B46002280212046009700F01EF882
:10202000002800D00120BDE8F883000000200080D7
:10203000F0B50568059C68684FF48066064FC1F3EB
:10204000090106EA545641EA02413E431943B043AE
:10205000214308436860F0BDFF63FF032DE9F041B1
:102060001D4617460E460446DDF8188008E0681C39
:1020700006D0FEF7A9FDA0EB0800A8420BD855B189
:102080002068806936EA000012D00020B842EED005
:102090000020BDE8F08154F8440F40F0200044F8DF
:1020A0000409202060700020A07020700120F0E75B
:1020B0000120EBE770B516460D4604460DE03246AA
:1020C00029462046FFF70EFF08B1012070BDFEF73C
:1020D0007BFD801BA84207D835B120688069C043CA
:1020E0008006ECD4002070BD54F8440F40F020006E
:1020F00044F80409202060700020A0702070E4E7FC
:1021000070B516460D4604460FE032462946204675
:10211000FFF7E8FE08B1012070BD681C05D0FEF78E
:1021200053FD801BA84207D835B120688069C043A1
:102130008007EAD4002070BD54F8440F40F020001E
:1021400044F80409202060700020A0702070E2E7AD
:1021500010B50446FEF769FD2046BDE8104000F0CA
:1021600001B8000010B504460B4820600B486060C1
:1021700000200121C4E9020120616061E061206268
:10218000204600F00DF82046FEF768FD2046BDE829
:1021900010400021FEF71EBD00580040812670004F
:1021A00030B5204C87B0E06C40F00200E064E06C99
:1021B0001D4D00F0020005904FF440600090122089
:1021C00001900120029003200390042004906946AE
:1021D0002846FEF7C1FB69462846FEF7BDFBA06D09
:1021E00040F48000A065A06D00F480000590A06B15
:1021F00040F48000A063A06B20F48000A063002264
:102200000F212120FEF74CFF2120FEF73BFF00228B
:102210000F212220FEF744FF2220FEF733FF07B0F4
:1022200030BD00000010024000040048FEB50D461D
:102230000646DDE908014FF47A748DE8130029465B
:102240003046FEF767FD040003D029463046FFF70D
:102250007FFF2046FEBDFEB50D460646DDE90801BE
:102260004FF47A748DE8130029463046FEF708FED5
:10227000040003D029463046FFF76AFF2046FEBD22
:1022800010B51021D42000F0B9FB20F0F00210218D
:10229000BDE81040D42000F0CFBB10B5044610219B
:1022A000D42000F0ABFB20F0FC02E1B20A43102185
:1022B000D42000F0C1FB1221D42000F09FFB20F0BD
:1022C000440242EA14221221BDE81040D42000F05A
:1022D000B3BB10B504461521D42000F08FFB20F0CD
:1022E00010020CB142F010021521BDE81040D420BC
:1022F00000F0A2BB10B500F07BFB0F21BDE8104041
:10230000D42000F07BBB000070B505462DED028B9C
:1023100086B000249FED248A1021D42000F06EFBAB
:102320000646062303AA2821D42000F079FB03A83F
:102330000DF1040200EB440310F814105B7801EB7C
:10234000032122F81410641CE4B2032CF2D316F01B
:102350000C0006D004280DD0082805D00C280BD17D
:1023600005E09FED128A07E09FED118A04E09FEDE2
:10237000118A01E09FED108A5FF0000132F911002F
:1023800000EE100AB8EEC00A20EE080ABDEEC00A40
:1023900010EE100A25F81100491CC9B20329EDD32B
:1023A00006B0BDEC028B70BD0000000023DB793D60
:1023B00023DBF93D23DB793E23DBF93E2DE9F04FAA
:1023C00087B014216846FDF748FFC748C16C41F04B
:1023D0001001C164C16C01F010010591C16C41F0A4
:1023E0000401C164C16C01F004010591C16C41F0AC
:1023F0000101C164C16C01F001010591C16C41F0A2
:102400000201C164C16C01F002010591C16C41F08F
:102410000801C164C06CDFF8D49200F00800059098
:1024200000224FF48A714846FEF7C9FB002248F2A9
:1024300004114FF09040FEF7C2FB00224FF214014E
:10244000AB48FEF7BCFB002241F28101A948FEF730
:10245000B6FB01225103A748FEF7B1FB00224FF45F
:102460001071A548FEF7ABFB01222021A048FEF722
:10247000A6FB012211464846FEF7A1FB40F21510CB
:10248000009001250024CDE9015469464846039493
:10249000FEF762FA994E6A20CDE900066946029479
:1024A0004846FEF759FA680300909548CDE90104C3
:1024B00069469148FEF750FA3F200B27CDE9000707
:1024C000694602948C48FEF747FA032000900220E8
:1024D000CDE90104032003900820049069464FF0E1
:1024E0009040FEF739FA48F204100090CDE901540B
:1024F00069464FF090400394FEF72EFA08200090B2
:102500000220CDE9010469464FF09040CDE9034532
:10251000FEF722FA1020CDE90007694602944FF039
:102520009040FEF719FAE02000900220CDE9010466
:10253000032003900520049069464FF09040FEF779
:102540000BFA0095CDE9016469466948FEF704FA83
:102550000220CDE90007694602946548FEF7FCF9C0
:102560004FF234000090CDE901546946604803946D
:10257000FEF7F2F94FF4207000900220CDE901043B
:102580000620CDE9034069464846FEF7E5F94FF4D9
:102590007C4000900220CDE9010403204FF00A089E
:1025A000CDE9030869464846FEF7D6F94FF4406086
:1025B0004FF01209CDE900090320CDE902504FF098
:1025C000040A6946CDF810A04948FEF7C5F94FF452
:1025D000407B0220CDF800B0CDE90104032007279D
:1025E000CDE9030769464348FEF7B6F94CF60440C7
:1025F000CDE90006694602943E48FEF7ADF943F284
:1026000081000090CDE9015469463A480394FEF7F1
:10261000A3F94FF410700090CDE901546946364893
:102620000394FEF799F94FF4C070CDE900066946AE
:1026300002943148FEF790F96802CDE9000469463A
:102640004FF090400294FEF787F9BE0202200096F8
:10265000CDE901040320CDE9030869464FF090401D
:10266000FEF77AF902200096CDE9010403200390D9
:102670000620049069462048FEF76EF9022000907B
:10268000CDE9010403200390052004906946194810
:10269000FEF762F9782000900220CDE901040320C2
:1026A000CDE9030769461348FEF756F90320CDE943
:1026B0000250CDE900B96946CDF810A00C48FEF7EC
:1026C0004BF9002211461720FEF7EAFC1720FEF70F
:1026D000D9FC002211462820FEF7E2FC2820FEF754
:1026E000D1FC07B000F00EB8001002400010004806
:1026F00000040048000C00480008004800001110C9
:102700000000211030BCBDE8C08F00000948084916
:1027100001604FF416514160002181600C22C160BC
:10272000C0E904128161C16101624162FFF7ACBA84
:1027300000380140AC000020FEE770477047000001
:102740002DE9F041444C05468846E06800268107A3
:1027500028680DD0E16801F00301814216D1A8B1CB
:10276000E0686968C0F30210401C88420ED120E086
:10277000012804D0022805D0032807D108E02168E9
:10278000890701E021684905002907DB01265FE090
:102790002168890302D421684903F5E7E1686A6882
:1027A0006FF00F0321F0730103EB02121143014399
:1027B000E160206820F080602060FEF705FA07469F
:1027C00005E000BFFEF700FAC01B022837D82068DA
:1027D0000001F7D4B8F1000F18D0B8F1010F1ED0E6
:1027E000287D4FF07E41400801EB4060A96840EA37
:1027F00001202169194A114008432061206840F0F6
:1028000080602060FEF7E0F907461AE0A868E968F2
:102810000002090940EA41402169114AEBE7288A90
:102820001049400801EB4050A96840EA01202169A5
:102830000D4AE0E7FEF7C8F9C01B022801D90326BC
:1028400006E020680001F5D52069A96908432061E8
:102850003046BDE8F081000000100240FF80FFF923
:10286000FF80FDFF0000E0FFFF809FFF2DE9F041AA
:102870003D4C06468846E0680025810730680DD04B
:10288000E16801F00301814216D1A8B1E0687168E6
:10289000C0F30210401C88420ED120E0012804D071
:1028A000022805D0032807D108E02168890701E044
:1028B00021684905002907DB012551E021688903CA
:1028C00002D421684903F5E7E16872686FF00F03ED
:1028D00021F0730103EB021211430143E160206810
:1028E00020F080502060FEF76FF9074605E000BF3A
:1028F000FEF76AF9C01B022829D820688000F7D4A7
:10290000B8F1000F15D0307C4FF07E41400801EB4C
:102910004060B16840EA01206169144A11400843EF
:102920006061206840F080502060FEF74DF9074656
:102930000FE0B068F1680002090940EA41406169AE
:102940000B4AEBE7FEF740F9C01B022801D903252B
:1029500006E020688000F5D5606971690843606110
:102960002846BDE8F081000000100240FF80FFF91A
:10297000FF80FDFFF8B51C4D06460024A86DC00081
:1029800002D5FEF7F3FB0DE0A86D40F08050A8657E
:10299000A86D00F080500090FEF7E8FBA96D21F0D3
:1029A0008051A965B0F5007F04D0802E07D94FF083
:1029B00003040AE0802E08D9A02E01D804E001D13A
:1029C000022402E0702E00D101240848016821F0A1
:1029D000070121430160006800F00700A04201D018
:1029E0000120F8BD0020F8BD001002400020024088
:1029F0000148FFF7B7BB0000600000200EB50022C1
:102A00008DF80820012302AACDE900230A460146D9
:102A10000248FFF70BFC9DF808000EBD6000002087
:102A20001CB5CDE900230A46014601230148FFF702
:102A3000FDFB1CBD6000002007B582B0012304AA85
:102A4000CDE900230A4601460248FFF704FC05B021
:102A500000BD0000600000207047FEF7C3BA30B52B
:102A6000B9B0442122A8FDF7F8FB142133A8FDF7E3
:102A7000F4FB88216846FDF7F0FB10200125229029
:102A8000002428956020CDE9294002202821CDE9A5
:102A90002C05CDE92E510721CDE93010329022A826
:102AA000FEF74AFE0F2033900320CDE9340436941C
:102AB000042133A83794FEF739FD684600950E943B
:102AC000FEF75CFB6802FEF71DFB39B030BD00006D
:102AD0000D48016841F4700101600C48016841F043
:102AE00001010160002181600268094B1A40026007
:102AF0008214C260026822F480220260816102496D
:102B0000C00380390860704788ED00E00010024083
:102B1000FFFFF6EA90F82410C90706D001684A685A
:102B2000836A22F400321A434A6090F8241089071D
:102B300006D501684A68C36A22F480321A434A60A3
:102B400090F82410490706D501684A68036B22F4FF
:102B500080221A434A6090F82410090706D50168BC
:102B60004A68436B22F400421A434A6090F82410EA
:102B7000C90606D501688A68836B22F480521A431D
:102B80008A6090F82410890606D501688A68C36BAC
:102B900022F400521A438A6090F82410490611D595
:102BA00001684A68036C22F480121A434A60016C7F
:102BB000B1F5801F06D101684A68436C22F4C00257
:102BC0001A434A6090F82410090606D501684A683D
:102BD000806C22F4002202434A607047F8B5002658
:102BE0000446C667FDF7F0FF0546206800686FF0F1
:102BF0007E47000708D52B4600224FF400112046DF
:102C0000009700F03DF960B92068006840070AD5D8
:102C10002B4600224FF480012046009700F030F947
:102C200008B10320F8BD20206067A06784F87060B9
:102C30000020F8BD2DE9F041044601688068226952
:102C4000E3691043626900251A431043824F0A6802
:102C5000824B1A4002430A6020684168E26821F40E
:102C60004051114341602168A069B94201D0226AF4
:102C700010438A6822F4306202438A6078492268ED
:102C800078488A420DD1D0F8880010F0030006D0B1
:102C9000012866D0022854D0032851D163E00120D6
:102CA0004FE071498A420BD1D0F8880010F00C0037
:102CB00047D0042845D0082851D00C2840D152E0F4
:102CC0006A498A420BD1D0F8880010F0300038D021
:102CD000102846D0202842D0302831D143E0644922
:102CE0008A420BD1D0F8880010F0C00029D04028CB
:102CF00037D0802833D0C02822D134E05D498A42C1
:102D00000ED1D0F8880010F440701AD0B0F5807F52
:102D100027D0B0F5007F22D0B0F5407F10D122E05F
:102D2000BA420DD1D0F8880010F4406009D0B0F557
:102D3000806F16D0B0F5006F11D0B0F5406F12D093
:102D400010204D4B00264FF40041BA422ED160B105
:102D5000022813D004280BD0082874D10DE00220DB
:102D6000EFE70420EDE70820EBE7FEF76FFC01E05A
:102D7000FEF790FC030001D169E00B46626802EBAC
:102D8000420098425FD8B3EB023F5CD8190E18029C
:102D900073084FEA3207C01959410023FDF710FAB2
:102DA000364AA0F5407191424FD94CE0E2694FF6A6
:102DB000EF778A4228D1092845D2DFE800F00508DC
:102DC00011440D4444441000FEF740FC01E0FEF7BE
:102DD0004FFC030004D13AE0FEF75CFCF9E70B4638
:102DE0006068590001EB5001B1FBF0F080B2A0F136
:102DF0001001B94227D84FF6F0710140C0F34200EC
:102E000001432068C16022E009281CD2DFE800F0FD
:102E10000508111B0D1B1B1B1000FEF717FC01E022
:102E2000FEF726FC030004D111E0FEF733FCF9E7BE
:102E30000B46606803EB5001B1FBF0F080B2A0F1EB
:102E40001001B94201D9012501E02168C860266658
:102E500028466666BDE8F08100800040F369FFEF18
:102E6000003801400010024000440040004800408B
:102E7000004C0040005000400024F400FFFC0F0014
:102E80002DE9F0479A4617460E4604464FF00009D2
:102E90004FF02008089D39E0681C37D0FDF794FEFC
:102EA000A0EB0A00A84222D80DB3206801684907A8
:102EB0002CD5C069C043000528D421684FF40060B8
:102EC00008622068016821F4D0710160206881687F
:102ED00021F001018160C4F87480C4F87880C4F8DE
:102EE0007C8000BF84F870900320BDE8F0872068E4
:102EF000016821F4D07101602068816821F001012E
:102F00008160C4F87480C4F87880EBE72068C069F9
:102F100036EA000004D00020B842BDD00020E4E72B
:102F20000120F9E7FEE700000FB4084B10B504A933
:102F300002AA039800F0F2F8044602A9002000F06B
:102F400087FC204610BC5DF814FB000051380008D7
:102F50000907090E002804DB00F1E02080F80014C6
:102F6000704700F00F0000F1E02080F8141D70475A
:102F700002E008C8121F08C1002AFAD17047704742
:102F8000002001E001C1121F002AFBD170470000A0
:102F90002DE9FF5F82B00021DDE90430020DDDF88C
:102FA00040B0034318D044F61050A2F2FF3242431F
:102FB0001514119801281FD0A5EB0B00401C5FEAE7
:102FC000000A4FF000064E4FDFF83891B0465046E9
:102FD00015D5CAF1000413E0119801244AA3012871
:102FE00001D16FEA0B010298119AC0E90031C0E9E2
:102FF000024206B000F08EB8CBF10000DFE70446D5
:103000000021404A491842EB0450CDE9001012E07B
:10301000E00707D032463B4640464946FDF7DEF919
:103020008046894632463B4610461946FDF7D6F99A
:1030300006460F466410002CEAD1DDE90401DDE903
:103040000023BAF1000F06DAFDF7C8F942464B46F5
:10305000FDF7C4F905E0FDF740FB42464B46FDF79E
:103060003CFB04460E460022284BFDF7BDFB03D86F
:103070004FF0FF30014607E00022254B2046314645
:10308000FDF7FDF8FDF798FB102409E0002C0ADBA2
:103090000A220023FDF794F8039B30321A55641E70
:1030A00050EA0102F2D1641C039AC4F111031444E2
:1030B000119A012A03D0012208430DD10AE00843E6
:1030C00004D000204FF0110B119072E7A3EB0B0519
:1030D0006D1E0DE05B4504DD4FF0000205F10105BA
:1030E00004E003DA4FF00002A5F10105002AECD05C
:1030F00002981199C0E90231C0E9004579E7000062
:10310000000014400000F03F300000000000F043D9
:103110000000E03F30BCBDE8C09F00002DE9FF4F3C
:1031200095B09B468946064600250FE2252877D1B3
:1031300000242746F84A0121059400E0044316F8CC
:10314000013F203B01FA03F01042F7D130782A28E2
:1031500011D06FF02F033078A0F13002092A16D871
:10316000059A44F0020402EB820203EB420210448F
:10317000761C0590EFE759F8042B0592002A03DA34
:10318000504244F40054059044F00204761C307818
:103190002E2816D116F8010F44F004042A280DD069
:1031A0006FF02F023078A0F13003092B09D807EB1C
:1031B000870302EB4303C718761CF3E759F8047B37
:1031C000761C30786C280FD006DC4C2817D0682885
:1031D0000DD06A2814D104E0742810D07A280FD1B9
:1031E0000DE044F400140AE044F4801401E044F4D7
:1031F00040147278824202D104F58014761C761C49
:10320000307866280BD013DC582877D009DC0028EA
:1032100075D04528F6D04628F4D047281AD19DE12C
:1032200018E0632835D0642879D0652812D195E15B
:10323000702873D008DC6728F1D069286FD06E2819
:103240000DD06F2806D1B5E073282CD0752875D025
:10325000782874D05A46179990476D1C75E1C4F3CD
:103260000250022809D003280DD0D9F800100428F4
:103270000DD00D6009F1040967E1D9F80010EA17D3
:10328000C1E90052F6E7D9F800100D80F2E70D70A1
:10329000F0E719F8041B8DF8001000208DF80100EC
:1032A000EA46012003E059F804AB4FF0FF30610714
:1032B0004FF0000102D40DE008F101018846B94247
:1032C0000FDA8045F8DB1AF808100029F4D108E07D
:1032D00008F1010188468142FADB1AF8081000293A
:1032E000F6D105985B46A0EB080721463846179AA9
:1032F00000F097FA284400EB080507E04DE029E1CB
:103300000DE01AF8010B5A4617999047B8F10108D9
:10331000F7D25B4621463846179A13E142E00A226B
:103320000092C4F302524FF0000A022A08D059F862
:1033300004CB032A4FEAEC710AD00DE029E02AE021
:1033400009F1070121F00702F2E802C1914609E004
:103350000FFA8CFC4FEAEC71042A03D14FFA8CFC73
:103360004FEAEC71002907DA0A460021DCF1000C73
:1033700061EB02012D2202E0220504D52B228DF8FB
:103380000420012203E0E20701D02022F7E7904663
:1033900059E00A2102E010220DE010214FF0000A4E
:1033A00000910BE010224FF0000A44F004040827BB
:1033B000009203E008224FF0000A0092C4F3025288
:1033C000022A05D059F804CB0021032A08D009E0CD
:1033D00009F1070121F00702F2E802C1914605E078
:1033E0001FFA8CFC042A01D10CF0FF0C4FF00008EE
:1033F000220728D5702806D0009B83F0100353EADB
:103400000A0305D00EE040228DF80420012208E0D6
:103410005CEA010206D030228DF804208DF8050008
:1034200002229046009B83F0080353EA0A030AD164
:103430005CEA010201D1620705D530228DF8042033
:103440004FF001087F1E582804D034A003900EA826
:1034500002900DE036A0F9E753466046009AFCF76B
:10346000AFFE84460398825C0298401E0290027070
:103470005CEA0100F0D1029806A9081A00F1200ABE
:10348000600702D524F4803400E00127574502DDAF
:10349000A7EB0A0000E0002000EB0A01009005986D
:1034A0004144401A0590E00306D45B462146179A32
:1034B000059800F0B6F90544002706E001A85A4631
:1034C000C05D179990476D1C7F1C4745F6DBE003F4
:1034D0000CD55B462146179A059800F0A2F90544E1
:1034E00004E030205A46179990476D1C0099481EF9
:1034F00000900029F5DC08E0029802995A4600780D
:10350000491C0291179990476D1CBAF10001AAF16C
:10351000010AF1DC65E10000092801003031323395
:1035200034353637383961626364656600000000FF
:1035300030313233343536373839414243444546E9
:103540000000000000F05BF90544761C307800288C
:103550007FF4ECAD19B0284600F04EB9620700D4F4
:10356000062709F1070222F0070CFCE80223E146D6
:1035700003F000485FEA080C02D00FF2702C0DE057
:103580005FEA045C02D50FF2682C07E05FEAC47CB6
:1035900002D00FF2602C01E0AFF2700C4FF0FF3858
:1035A00023F00043CDF850C065280CD006DC452838
:1035B00009D046281DD047283DD13DE0662818D0C7
:1035C00067287ED138E00021112F01DB112000E0B7
:1035D000781CCDE9000106A90EA8FFF7D9FCDDE9AA
:1035E0000F010E9A03910021009207F1010A049144
:1035F0004DE04FF000400097CDE9011006A90EA85C
:10360000FFF7C6FCDDE90F0203920E9B1199002221
:10361000DDF80CA00093049211B9791C00EB010AAB
:10362000B7EB0A0004D4C0F1FF3007F1010A04909F
:10363000AAEB0700019044E0012F00DA01270021E6
:10364000112F01DD112000E03846CDE9000106A967
:103650000EA8FFF79DFCDDE90F010E9A03910021F2
:1036600004910092BA4621070CD40399514500DA1F
:103670008A46BAF1010F05DD009AAAF10101515CF9
:10368000302908D0B84202DA10F1040F06DA01211D
:10369000CDE9011015E0AAF10101E9E7002805DCF8
:1036A000049901440491AAEB000102E0411C514538
:1036B00000DD8A460499401A401C01904FF00040FA
:1036C0000290200704D40198504501DBCDF8048016
:1036D00000208DF84F0002980DF14F07B0F1004F18
:1036E00025D02B200E9002984FF0020800280CDA0B
:1036F000404202902D200E9007E00A210298FCF72C
:1037000011FF3031029007F8011DB8F10001A8F156
:103710000108F2DC02980028EFD1791E0E9808709B
:10372000307800F0200040F0450007F8020D12A8A4
:10373000C01B00F107081498007800B1012000EBCD
:103740000A01019801EBE07105984144401A401EBE
:103750000590E00306D45B462146179A059800F0D1
:1037600060F805441498007818B15A4617999047A4
:103770006D1CE00324D55B462146179A059800F09E
:1037800050F805441CE00498002807DBDDE903013C
:10379000884203DD0098405C179901E017993020BA
:1037A0005A469047049805F10105401C0490019881
:1037B000401E019004D12E205A46179990476D1C47
:1037C000BAF10001AAF1010ADDDC05E017F8010BEE
:1037D0005A46179990476D1CB8F10001A8F10108ED
:1037E000F4DC5B462146179A0598ABE62D000000F5
:1037F0002B0000002000000030BCBDE8C08F2DE988
:10380000F041044600251E461746880404D405E00E
:1038100039462020B0476D1C641EF9D52846BDE806
:10382000F0812DE9F041044600251E469046C8036C
:1038300001D5302700E02027880404D505E0414663
:103840003846B0476D1C641EF9D52846BDE8F081A6
:103850000A68531C0B60107070470000AAB0FDF797
:10386000C9FBFFF7FCF8FEF7A9FDFEF74FFF20218B
:1038700009A8FCF7F2FC242269A16846FCF7D4FCF5
:1038800070A0D0E90010CDE9221070A1D1E90001AB
:10389000CDE920016FA1D1E90001CDE916016FA0AA
:1038A00000681F9000201D901E90FCF7E9FFFCF7B8
:1038B000D1FF6B4C4FF0FF354FF47A76206810B192
:1038C000012825D0A8E0FCF7EDFF10EE100AFCF768
:1038D000FAFD9FED641B53EC112BFCF77FFD9FED70
:1038E000631B53EC112BFCF7CAFCFCF7FFFDFCF744
:1038F000EAFD41EC100B5FA153EC102B09A8FFF778
:1039000013FB09A8FCF7B4FC82B22B4609A980E09E
:10391000142111A8FCF7A1FC142118A8FCF79DFCA8
:10392000142124A8FCF799FC1DA8FCF787FFBDF91A
:10393000742059A111A8FFF7F7FABDF9762056A116
:1039400018A8FFF7F1FABDF9782053A124A8FFF7D2
:10395000EBFA6846FCF78CFC82B22B4669464F486E
:10396000FEF7F8F96846FCF783FC82B22B466946FD
:103970004A48FEF7EFF922A8FCF77AFC82B22B4600
:1039800022A94648FEF7E6F911A8FCF771FC82B2BD
:103990002B4611A94148FEF7DDF91FA8FCF768FC8A
:1039A00082B22B461FA93D48FEF7D4F920A8FCF7A8
:1039B0005FFC82B22B4620A93848FEF7CBF918A845
:1039C000FCF756FC82B22B4618A93448FEF7C2F920
:1039D0001FA8FCF74DFC82B22B461FA92F48FEF70B
:1039E000B9F916A8FCF744FC82B22B4616A92B485D
:1039F000FEF7B0F924A8FCF73BFC82B22B4624A9C1
:103A00002648FEF7A7F91FA8FCF732FC82B22B4626
:103A10001FA92248FEF79EF93046FCF77DFF4DE7CF
:103A20002A2A2A2A2A2A2A2A2A2A2A2A2A2A2A2AF6
:103A30002A2A2A2A2A2A2A2A2A2A2A2A2A2A2A2AE6
:103A40002A0A0D00585F446174613D00595F44616A
:103A500074613D005A5F446174613D00200A0D00AD
:103A600018000020CDCCCCCCCCCCFC3F000000001A
:103A7000000040405468652074656D706572617423
:103A80007572652069733A20252E32662064656759
:103A900020460A0D0000000025640000AC00002054
:103AA00000000000000000000102030406070809EE
:103AB000A0860100400D0300801A060000350C00AE
:103AC00040420F0080841E0000093D0000127A0071
:103AD0000024F40000366E010048E801006CDC02AE
:103AE0000000000001020304083B00080000002061
:103AF00060000000702F0008683B00086000002094
:103B0000D0040000802F000800000000000000002A
:103B100001000000100000000000000000093D004E
:103B2000000000000B1E0008000000000000000064
:103B30002B1E00089B22000881220008F5220008A5
:103B400000000000D3220008000000000000000078
:103B50000000000000000000000000000000000065
:083B6000000000000923000829
:040000050800018965
:00000001FF
